:100000000C9473000C949B000C949B000C949B002C
:100010000C949B000C949B000C949B000C942B085C
:100020000C949B000C949B000C949B000C949B00E4
:100030000C949B000C949B000C949B000C949B00D4
:100040000C94E1070C949B000C949B000C949B0077
:100050000C949B000C949B000C949B000C949B00B4
:100060000C9487080C949B0031323A32373A323282
:1000700000536570202034203230323600020000F8
:100080000000240027002A000000000025002800AE
:100090002B000000000023002600290004040404B3
:1000A0000404040402020202020203030303030322
:1000B00001020408102040800102040810200102FF
:1000C00004081020000000080002010000030407DB
:1000D00000000000000000001F1C1F1E1F1E1F1F2D
:1000E0001E1F1E00A60911241FBECFEFD8E0DEBFE1
:1000F000CDBF22E0AEEDB1E001C01D92AE3EB20731
:10010000E1F711E0A0E0B1E0EAEEF6E202C005900E
:100110000D92AE3DB107D9F710E0C3E7D0E004C0BF
:100120002197FE010E94930FC237D107C9F70E94A1
:10013000F1090C9473130C94000008950895833012
:1001400081F028F4813099F08230A9F00895873049
:10015000A9F08830C9F08430B1F4809180008F7D9F
:1001600003C0809180008F7780938000089584B5CC
:100170008F7784BD089584B58F7DFBCF8091B000CB
:100180008F778093B00008958091B0008F7DF9CF74
:10019000CF93DF93282F30E0F901EC53FF4F849188
:1001A000F901E055FF4FD491F901E456FF4FC49196
:1001B000CC23A1F081110E949F00EC2FF0E0EE0F04
:1001C000FF1FEE56FF4FA591B491EC91ED2381E016
:1001D00090E009F480E0DF91CF91089580E090E015
:1001E000FACF1F93CF93DF93282F30E0F901EC5320
:1001F000FF4F8491F901E055FF4FD491F901E45686
:10020000FF4FC491CC23A9F0162F81110E949F00AB
:10021000EC2FF0E0EE0FFF1FE857FF4FA591B491D0
:100220008FB7F894EC91111108C0D095DE23DC93C0
:100230008FBFDF91CF911F910895DE2BF8CFCF9321
:10024000DF9390E0FC01E055FF4F249184569F4FCF
:10025000FC0184918823D1F090E0880F991FFC0164
:10026000E258FF4FA591B491FC01E857FF4FC591AB
:10027000D491623071F49FB7F8943C91822F8095AD
:1002800083238C93E8812E2B28839FBFDF91CF910E
:1002900008958FB7F894EC912E2B2C938FBFF6CF47
:1002A0003FB7F89480914F0290915002A091510273
:1002B000B091520226B5A89B05C02F3F19F00196B8
:1002C000A11DB11D3FBFBA2FA92F982F8827BC01B0
:1002D000CD01620F711D811D911D42E0660F771FD8
:1002E000881F991F4A95D1F708958F929F92AF92D8
:1002F000BF92CF92DF92EF92FF924B015C010E947E
:1003000050016B017C010E9450016C197D098E091E
:100310009F09683E734081059105A8F321E0821A88
:100320009108A108B10888EEC80E83E0D81EE11C30
:10033000F11C81149104A104B10429F7FF90EF90FE
:10034000DF90CF90BF90AF909F908F9008952FB780
:10035000F89460914B0270914C0280914D02909103
:100360004E022FBF08959091000189130BC0EDE755
:10037000F0E0E4919FEF90930001E13049F028F024
:10038000E23061F060E00C94F10010926E00FACF60
:1003900090916F009D7F90936F00F4CF90917000CB
:1003A0009D7F9093700091E09093B0009091B10088
:1003B000987F94609093B1001092B300E3CFAF9216
:1003C000BF92CF92DF92EF92FF920F931F93CF9342
:1003D000DF936C017B018B01040F151FEB015E01A4
:1003E000AE18BF08C017D10759F06991D601ED9139
:1003F000FC910190F081E02DC6010995892B79F7D8
:10040000C501DF91CF911F910F91FF90EF90DF9089
:10041000CF90BF90AF9008950895FC0190819053C4
:100420009A3008F090E0818180532AE0929F800DFD
:10043000112408952091FF01260F3327331F213205
:100440003105ECF42091A102FC0190E080E0243021
:1004500069F082E00895A091FF012191AC01415221
:100460005E4FA40FB52FB11D2C930196861798F3FC
:100470008091FF01680F6093FF0180E0089581E0A3
:1004800008951092A10281E08093A00210927B0255
:1004900061E082E10E94F10061E083E10E94F100ED
:1004A000E9EBF0E080818E7F808380818D7F808387
:1004B00088E48093B80085E48093BC00089510928E
:1004C0005A02109259021092A8021092CA020E9477
:1004D00041028DE990E090935602809355028EE997
:1004E00090E090935402809353020895CF93DF934A
:1004F00091E09093DE018823B9F0C091B800D091CB
:10050000BA008091BC008A7B8093BC0060E082E1ED
:100510000E94F10060E083E10E94F1000E9441022C
:10052000D093BA00C093B800DF91CF9108958F9215
:100530009F92AF92BF92CF92DF92EF92FF920F9372
:100540001F93CF93DF93D091CA02D13208F0D7C066
:10055000182FC091C9020E9450016B017C0180914B
:10056000A10281116BC082E08093A1021093A002CE
:100570008FEF80939F0210929E02D0939D02A9EA72
:10058000B2E0EDE7F2E080E0D81391C010927C0277
:1005900080917C02CC0FC82BC0937C0280917B029F
:1005A000813009F088C010927B020E9450016B01DB
:1005B0007C0180917C028093BB008091A30290918A
:1005C000A402A091A502B091A602892B8A2B8B2BA5
:1005D000A1F00E9450010091A3021091A402209169
:1005E000A5023091A6026C197D098E099F09061794
:1005F00017072807390708F442C08091BC0083FD23
:10060000D8CF85EC8093BC000E9450016B017C0127
:100610008091A102823009F450C080919F028F3FE7
:1006200009F46FC080919F02803209F46CC0809100
:100630009F02803309F469C084E026C08091A30240
:100640009091A402A091A502B091A602892B8A2BB9
:100650008B2B09F484CF0E9450018090A3029090CC
:10066000A402A090A502B090A6026C197D098E0983
:100670009F0986169706A806B90608F070CF8091E4
:10068000A2020E94760285E01092A8021092CA028D
:100690001092A702DF91CF911F910F91FF90EF90E1
:1006A000DF90CF90BF90AF909F908F9008959D91D5
:1006B00091938F5F69CF85EEA5CF8091A302909132
:1006C000A402A091A502B091A602892B8A2B8B2BA4
:1006D00009F49ECF0E9450010091A3021091A40240
:1006E0002091A5023091A6026C197D098E099F09FF
:1006F000061717072807390708F08ACFC0CF81E00F
:10070000C3CF80E0C1CF82E0BFCF83E0BDCF1F93D6
:10071000CF93DF93EA01122FDC0111968D919C910A
:10072000DC01ED91FC910280F381E02D0995C81761
:10073000D90729F4812F0E94970291E0811190E05E
:10074000892FDF91CF911F910895CF93DF93EC0113
:100750008B818823A1F0888191E09093A7028093F8
:10076000C9021092A8021092CA0281E00E94970268
:1007700091E0811190E0892FDF91CF9108950E943F
:100780005F0281E08B83CE010E94A503982F811127
:10079000E2CFF1CF0895E0915A0280915902E81713
:1007A00030F4F0E0E55AFD4F808190E008958FEF3E
:1007B0009FEF089590915A02809159022FEF3FEFD9
:1007C000981748F4E92FF0E0E55AFD4F208130E01A
:1007D0009F5F90935A02C9010895809159029091A8
:1007E0005A02891B990B0895CF92DF92EF92FF92E4
:1007F0000F931F93CF93DF937C01CB018A0120914C
:10080000A702222389F0EB016B01C40ED51ECC1583
:10081000DD0569F06991D701ED91FC910190F081BE
:10082000E02DC7010995F3CF642F0E941A02C80179
:10083000DF91CF911F910F91FF90EF90DF90CF90BC
:100840000895CF93DF931F92CDB7DEB769832091D0
:10085000A7022223F9F02091CA02203258F021E0A9
:1008600030E0FC013383228390E080E00F90DF9141
:10087000CF9108958091A802E82FF0E0E755FD4F51
:10088000998190838F5F8093A8028093CA0281E050
:1008900090E0ECCF61E0CE0101960E941A02F7CF02
:1008A000FC01248131E03093A7022093C902109209
:1008B000A8021092CA028485682B8BEC92E00E94F9
:1008C000210481E00C94970290E080E00895CF939A
:1008D000C82F0E94C800892B99F462E370E080E081
:1008E00090E00E9475018C2F0E94C800892B41F472
:1008F0008C2F0E94C800892BD9F381E0CF910895F5
:1009000080E0FCCF2F923F924F925F926F927F9246
:100910008F929F92AF92BF92CF92DF92EF92FF920F
:100920000F931F93CF93DF935C011B016A01F12C9E
:10093000E12CD50114968D919C9186010E191F0909
:100940008017910708F48C01F501D0810E945001B5
:100950002B013C018091A102811172C0C02F013294
:1009600008F0C0E2F1E0F093A10221E0C601801B93
:10097000910BE816F90608F420E02093A0028FEF0F
:1009800080939F0210929E028C0F80939D02A1E0A3
:10099000A0937C0280917C02DD0FD82BD0937C0247
:1009A00080917B02813009F090C010927B020E94FE
:1009B00050012B013C0180917C028093BB0080910F
:1009C000A3029091A402A091A502B091A602892B46
:1009D0008A2B8B2BA1F00E9450012091A302309111
:1009E000A4024091A5025091A602641975098609D6
:1009F0009709261737074807590708F442C080911E
:100A0000BC0083FDD8CFB5ECB093BC000E94500170
:100A10002B013C018091A102813009F45AC08091E0
:100A20009E028C1710F4C0919E02ADE7B2E0EBE598
:100A3000F2E080E08C1751F19D9191938F5FFACF96
:100A40008091A3029091A402A091A502B091A60268
:100A5000892B8A2B8B2B09F47DCF0E94500120918A
:100A6000A3023091A4024091A5025091A6026419FC
:100A7000750986099709261737074807590708F0A7
:100A800069CF8091A2020E947602C0E010925A02C1
:100A9000C0935902C017110609F057C041018E0CCE
:100AA0009F1CE401CE01881999098017910798F5D8
:100AB000D50111968D919C91DC01ED91FC91028400
:100AC000F385E02D09958993EDCFE5EEE093BC0029
:100AD0009DCF8091A3029091A402A091A502B09114
:100AE000A602892B8A2B8B2B09F494CF0E945001EC
:100AF0002091A3023091A4024091A5025091A60238
:100B00006419750986099709261737074807590791
:100B100008F080CFB6CFE00EF11EEC14FD0408F40F
:100B200008CF81E0DF91CF911F910F91FF90EF905F
:100B3000DF90CF90BF90AF909F908F907F906F90FD
:100B40005F904F903F902F90089580E0EBCF0F93F0
:100B50001F93CF93DF93CDB7DEB728970FB6F894E6
:100B6000DEBF0FBECDBFDC018E010F5F1F4F86E0E1
:100B7000F80111928A95E9F715963C9115972AE0AC
:100B8000832F622F0E94730F982F880F890F880F71
:100B9000830F8A8314963C911497832F0E94730FBE
:100BA000982F880F890F880F830F8B8313963C91A2
:100BB0001397832F0E94730F982F880F890F880F28
:100BC000830F8C8312963C911297832F0E94730F90
:100BD000982F880F890F880F830F8E8311963C9171
:100BE0001197832F0E94730F982F880F890F880FFA
:100BF000830F8F833C91832F0E94730F982F880F50
:100C0000890F880F830F888780915702909158022F
:100C1000FC01248135812830310580F0208131E0CC
:100C20003093A7022093C9021092A8021092CA0220
:100C300021E048E050E0B8010E94870328960FB6F3
:100C4000F894DEBF0FBECDBFDF91CF911F910F9102
:100C50000895EF92FF920F931F93CF93DF9300D0ED
:100C600000D000D01F92CDB7DEB78C011982E09082
:100C70005702F0905802D70114968D919C911597C8
:100C8000892BE9F08C9191E09093A7028093C9029F
:100C90001092A8021092CA0220E041E050E0BE018A
:100CA0006F5F7F4FC7010E948703882341F047E0B1
:100CB00050E0BE016F5F7F4FC7010E948204E9814F
:100CC000EF77FA81FB804D815E818F81282F30E0A4
:100CD00094E0359527959A95E1F7922F990F990F02
:100CE000291B220F280FD8012C93852F90E024E098
:100CF000959587952A95E1F7982F990F990F891B5C
:100D0000880F850F11968C931197642F70E034E053
:100D1000759567953A95E1F7862F880F880F681BC0
:100D2000660F640F12966C9312974F2D50E064E09B
:100D3000559547956A95E1F7842F880F880F481BD2
:100D4000440F4F0D13964C9313972F2F30E074E000
:100D5000359527957A95E1F7822F880F880F281B04
:100D6000220F2F0F14962C9314978E2F90E0F4E0FF
:100D700095958795FA95E1F7982F990F990F891B0B
:100D8000880F8E0F15968C93C80127960FB6F8948E
:100D9000DEBF0FBECDBFDF91CF911F910F91FF90AE
:100DA000EF9008950F931F93CF938C01C62F0E944D
:100DB00050046C2F6460C8010E9450046C2F6B7F3C
:100DC000C8010E94500483EC90E00197F1F7CF91A5
:100DD0001F910F9108950F931F93CF93DF938C0171
:100DE000D62FC42F607F642B0E94D20680E1D89F4B
:100DF000B00111246C2BC801DF91CF911F910F918D
:100E00000C94D206CF93DF93CDB7DEB728970FB6F9
:100E1000F894DEBF0FBECDBF98E0ECE0F1E0DE015C
:100E2000119601900D929A95E1F79091E50298172D
:100E300008F48FEF90E0880F991F21E030E02C0F2D
:100E40003D1F820F931FFC016081606840E08DEDC3
:100E500092E028960FB6F894DEBF0FBECDBFDF91AB
:100E6000CF910C94EB0641E00E94EB0681E090E00C
:100E700008950F931F93CF93DF93D62FC72F0E9410
:100E800002070D2F1C2FC0E0F80161918F0166232E
:100E900049F0C03189F041E08DED92E00E94EB060F
:100EA000CF5FF2CFC03141F041E060E28DED92E0E2
:100EB0000E94EB06CF5FF6CFDF91CF911F910F918C
:100EC000089585ED8093BC008091A3029091A402C7
:100ED000A091A502B091A6020796A11DB11D23E025
:100EE000B695A795979587952A95D1F72091BC003F
:100EF00024FD03C01092A10208954091A3025091D5
:100F0000A4026091A5027091A602452B462B472BA7
:100F100069F30097A105B10541F02AE22A95F1F79E
:100F200000C00197A109B109E1CF8091A2020C9400
:100F30007602FF920F931F93CF93DF93EC01F62E6F
:100F400008811981C8010E94260FF81621F06F2D23
:100F5000C8010E942E0FCE01DF91CF911F910F91FA
:100F6000FF900895CF93DF9300D0CDB7DEB71A82FC
:100F700019826AE5CE0101960E94990760910201EB
:100F800081E090E09A838983CE0101960E949907BF
:100F90006091010182E090E09A838983CE010196FD
:100FA0000E9499076091030183E090E09A8389830E
:100FB000CE0101960E9499070F900F90DF91CF917B
:100FC00008951F920F920FB60F9211242F933F9303
:100FD0008F939F93AF93BF9380914B0290914C025C
:100FE000A0914D02B0914E0230914A0223E0230FAE
:100FF0002D3758F50196A11DB11D20934A0280930B
:101000004B0290934C02A0934D02B0934E028091FC
:101010004F0290915002A0915102B091520201965C
:10102000A11DB11D80934F0290935002A0935102D5
:10103000B0935202BF91AF919F918F913F912F91A9
:101040000F900FBE0F901F90189526E8230F029661
:10105000A11DB11DD2CF1F920F920FB60F92112476
:101060002F933F934F935F936F937F938F939F93B0
:10107000AF93BF93EF93FF93809127029091280243
:10108000A0912902B0912A02892B8A2B8B2BD1F1B6
:1010900090912202E0912302F0912402808189271D
:1010A00080838091270290912802A0912902B0911B
:1010B0002A02181619061A061B069CF480912702AC
:1010C00090912802A0912902B0912A020197A109CA
:1010D000B1098093270290932802A0932902B0932C
:1010E0002A02FF91EF91BF91AF919F918F917F91D4
:1010F0006F915F914F913F912F910F900FBE0F9085
:101100001F901895809100010E94B301EACF1F92B1
:101110000F920FB60F9211242F933F934F935F932B
:101120006F937F938F939F93AF93BF93EF93FF93AF
:101130008091B900887F803609F44AC0F0F5883282
:1011400009F4A7C018F5803109F49BC0B8F48823CE
:1011500009F4F9C0883009F494C0FF91EF91BF9170
:10116000AF919F918F917F916F915F914F913F913F
:101170002F910F900FBE0F901F901895883109F492
:1011800088C0803251F780939F0214C0803409F4E4
:101190009DC040F48033B9F38833F9F680939F0201
:1011A00085ECB0C0803509F485C0883509F496C057
:1011B000883499F60E946107D0CF883909F48CC031
:1011C00038F5883729F050F4883611F0803729F641
:1011D00083E08093A1021092210257C0883809F45D
:1011E0007BC0803919F0803809F0B7CF8091210297
:1011F000803208F071C0E091210281E08E0F80936F
:1012000021028091BB00F0E0EF5FFD4F80833DC085
:10121000803B39F0E0F4803A09F479C0883A09F06B
:101220009CCF84E08093A102109200021092FF01F3
:10123000E0915502F091560209958091FF018111CC
:101240000FC081E08093FF011092DF0109C0803C54
:1012500009F4A6CF883C09F4A3CF883B09F07DCFE1
:10126000E091000281E08E0F80930002F0E0E152F5
:10127000FE4F80818093BB00909100028091FF011E
:1012800029C080917C028093BB0085EC8093BC00D8
:1012900064CF90919E0280919D02981758F5E0913D
:1012A0009E0281E08E0F80939E02F0E0E358FD4F96
:1012B0008081E9CFE0919E0281E08E0F80939E02B3
:1012C0008091BB00F0E0E358FD4F808390919E0237
:1012D00080919D029817C8F285E8D8CFE0919E02D0
:1012E00081E08E0F80939E028091BB00F0E0E35876
:1012F000FD4F80838091A00281115CCF81E08093BB
:101300007B0284EA8093BC001092A10226CF85EC78
:101310008093BC001092A10280912102803230F4AF
:10132000E0912102F0E0EF5FFD4F10826091210219
:1013300070E0E0915302F091540281E092E009954F
:10134000109221020ACF10929F0234CF1092CE0247
:101350001092CD0288EE93E0A0E0B0E08093CF023F
:101360009093D002A093D102B093D20282E291E096
:101370009093CC028093CB021092E0021092DF0295
:1013800084E391E09093DE028093DD021092E60206
:1013900080E28093E10280E18093E70282E0809323
:1013A000E8021092E9021092DC021092DB02109225
:1013B000DA021092D702E8EDF0E081E08C3049F0DB
:1013C0009491823009F49F5F21E0280F3196992390
:1013D00031F08093D80281E08093D9020895822F62
:1013E000EDCFCF93DF93CDB7DEB768970FB6F89404
:1013F000DEBF0FBECDBF789484B5826084BD84B556
:10140000816084BD85B5826085BD85B5816085BDFF
:1014100080916E00816080936E00109281008091B7
:10142000810082608093810080918100816080933F
:101430008100809180008160809380008091B10064
:1014400084608093B1008091B00081608093B0008F
:1014500080917A00846080937A0080917A00826023
:1014600080937A0080917A00816080937A008091E5
:101470007A00806880937A001092C10062E082E076
:101480000E941F0162E083E00E941F0162E085E08C
:101490000E941F0162E086E00E941F0161E088E077
:1014A0000E941F0161E088E00E94F10061E089E094
:1014B0000E941F0161E089E00E94F1000E945F022A
:1014C0001092E2028091E802823018F098E0909346
:1014D000E2028093E50262E370E080E090E00E9427
:1014E00075016091E9028DED92E00E94500468EE72
:1014F00073E080E090E00E94750160E38DED92E082
:101500000E94D2060BE416E4C8010197F1F760E3EC
:101510008DED92E00E94D206C8010197F1F760E3D9
:101520008DED92E00E94D20683E592E00197F1F7FB
:1015300060E28DED92E00E94D2066091E20260626C
:1015400040E08DED92E00E94EB0684E08093E302A0
:1015500040E06CE08DED92E00E94EB0640E061E03F
:101560008DED92E00E94EB068BE39FE10197F1F78E
:101570008091E602882319F080E00E94020782E051
:101580008093E40240E066E08DED92E00E94EB067D
:1015900040E062E08DED92E00E94EB068BE39FE17C
:1015A0000197F1F788E08093E90260E08DED92E029
:1015B0000E9450048091570290915802009711F0B8
:1015C0000E94491086E090E00E94AD0F8C0188E6F1
:1015D000F80180838BEC92E092838183138280E216
:1015E00090E09583848310935802009357020E94E1
:1015F0005F02FF24F394F801F382C8010E94A5035F
:101600008E010F5F1F4FC8010E94290686E0F80176
:10161000A7EDB2E001900D928A95E1F7188E8091C6
:10162000570290915802FC0124813581232B89F0C7
:101630002081F092A7022093C9021092A802109272
:10164000CA0221E041E050E0BE01685E7F4F0E9487
:10165000870341E050E0B801809157029091580211
:101660000E948204898190E0880F892F881F990B3E
:10167000892B09F45DC04BE050E061E770E0C801E0
:101680000E941D0FCE010A960E940D028A8BE981ED
:10169000E154E33120F50E2E000CFF0BEE5AF44F0F
:1016A0000C94930F5D0C6F0B6F0B710C6F0B5B0C3D
:1016B0006F0B6F0B6F0B650B6F0B6F0B640C6F0C6D
:1016C0006D0C6F0B6F0B6F0B6B0C8A81813609F4FD
:1016D000EEC08B818E3609F0ECC086E08B8BCE019C
:1016E00005960E940D028C8B48E050E068E670E0A1
:1016F000C8010E941D0FC8010E940D028D8BCE01F2
:1017000004960E940D028E8BCE0107960E940D0258
:101710008F8BCE0142960E94A705C8010E94290620
:1017200086E0F801A7EDB2E001900D928A95E1F70D
:1017300090E080E00E94260F8A35B1F481E090E0CD
:101740000E94260F8093020182E090E00E94260F03
:101750008093010183E090E00E94260F91E08111C7
:1017600001C090E09093030180910201883118F04C
:1017700086E080930201809101018C3318F08EE1A4
:10178000809301017CE3C72ED12CE8E14E2E512C31
:1017900066246A94762C88248A94982C54010E949A
:1017A000A701209146023091470240914802509192
:1017B0004902621B730B840B950B643F71408105DA
:1017C0009105A8F00E94A70160934602709347021A
:1017D0008093480290934902C8010E94290686E03E
:1017E000F801A7EDB2E001900D928A95E1F73091F2
:1017F000DA022091DB02822F90E04CE3349F800DCF
:10180000911D112440910401509105018417950701
:1018100009F418C140914502909305018093040199
:1018200080910301882309F40DC1411110C18091F9
:101830000201381369C180910101281365C181E05B
:10184000809345020E94A701609341027093420277
:10185000809343029093440280910001893009F003
:1018600042C0EDE7F0E0F490F7FCE8C061E089E009
:101870000E941F01FF2009F4B1C0F2E0FF12C2C0B4
:101880008091B100887F83608093B10083E680936C
:10189000B3008092270290922802A0922902B0926F
:1018A0002A0280917000826080937000C7C081E03E
:1018B00015CF87E013CF82E011CF8B81823711F4EF
:1018C00084E00CCF88E00ACF8B81823711F483E06B
:1018D00005CF85E003CF89E001CF8AE0FFCE8BE022
:1018E000FDCE8CE0FBCE8F3F09F0A8C089E080934D
:1018F0000001EDE7F0E0F4908F2DFFEFFF1609F403
:101900009DC021E0F21631F1F21650F0823009F458
:1019100040C0F7FC93C061E089E00E941F01ADCF99
:1019200014BC15BC84B5826084BD85B5816085BD5D
:10193000E5EAF0E08491E82FF0E0EE0FFF1FE857B2
:10194000FF4F85919491E9EBF0E08491809326021A
:10195000F12C8CCF10928000109281008091810038
:1019600088608093810080918100816080938100F4
:10197000E5EAF0E08491E82FF0E0EE0FFF1FE85772
:10198000FF4F85919491E9EBF0E0849180932502DB
:101990006DCF1092B0001092B1008091B0008260C3
:1019A0008093B0008091B10081608093B100E5EA3E
:1019B000F0E08491E82FF0E0EE0FFF1FE857FF4FB3
:1019C000859194919093240280932302E9EBF0E0B7
:1019D00084918093220242E0F42E48CF85B5887F1F
:1019E000836085BD81E387BD80922F029092300293
:1019F000A0923102B092320280916E008260809398
:101A00006E001CC021E0F21276C080918100887FB8
:101A10008160809381008FE79CE0909389008093A0
:101A2000880080922B0290922C02A0922D02B092FC
:101A30002E0280916F00826080936F0060E088E0EA
:101A40000E94F10080914502882309F45DC00E9444
:101A5000A7012091410230914202409143025091EE
:101A60004402621B730B840B950B60337547810531
:101A7000910568F01092450289E00E94B30161E08F
:101A800089E00E94F10061E088E00E94F1000E947C
:101A9000A7012091330230913402409135025091D8
:101AA0003602621B730B840B950B683C7105810534
:101AB0009105C8F00E94A70160933302709334022D
:101AC000809335029093360280914502882309F471
:101AD00022C169E471E080E00E9439076AE571E0A3
:101AE00081E00E94390780E090E0892B09F457CE0D
:101AF0000E94000054CE92E0F91621F0F1109ECF22
:101B00008FE771CF8FE7C3CE82E00E94C80020919B
:101B10004002892B09F03FC021110DC081E0809364
:101B200040020E94A70160933C0270933D028093A3
:101B30003E0290933F0285E00E946704E82E86E013
:101B40000E946704F12C882319F0EE24EA94FE2CFD
:101B500083E00E946704382F80913B02813009F0B6
:101B600088C0E114F10409F47BC080913A0281112C
:101B700058C08091390290E048968E0D9F1DB201A9
:101B80000E947F0F80933902332309F480CF81E0D4
:101B900080933A027CCF222371F20E94A701209108
:101BA0003C0230913D0240913E0250913F02621B47
:101BB000730B840B950B693E73408105910558F0BA
:101BC0008091030191E08927809303010E94B2076D
:101BD00010924002B0CF80913B0290E0019663E00A
:101BE00070E00E947F0F80933B0210923A02813096
:101BF00049F4809102018093390280910101809320
:101C00003802E6CF823021F78091DA0280933902E0
:101C10008091DB02809338028091DC02809337024E
:101C2000D7CF8091380290E0CC968E0D9F1DB601E3
:101C30000E947F0F80933802332309F428CF8091CC
:101C400039028093020180913802809301010E9441
:101C5000B207709205016092040110923B0217CF07
:101C6000332309F414CF80913A02882309F48FCFEB
:101C7000E6CF823009F00BCFE114F10459F1209145
:101C80003A0221110EC08091390290E048968E0DE3
:101C90009F1DB2010E947F0F80933902311121C034
:101CA000F6CE213061F48091380290E0CC968E0D12
:101CB0009F1DB6010E947F0F80933802EFCF809165
:101CC000370290E0CC968E0D9F1DB6010E947F0FCB
:101CD00080933702332309F4DACE20913A0222307E
:101CE00020F42F5F20933A02D2CE80913702909158
:101CF0003802209139023091D9024091D802509196
:101D0000D70259834A833B832C839D838E83C801EA
:101D10000E94A7059ECF80913B0281114DC080910A
:101D20000301882309F445C08CE391E09F938F93CE
:101D30008091DC021F928F938091DB021F928F9320
:101D40008091DA021F928F9386E691E09F938F93A2
:101D50001F930F930E94D210B80180E00E943907B0
:101D6000809101011F928F93809102011F928F93A6
:101D70008091D70290E08053984F9F938F938091EA
:101D8000D8021F928F938091D9021F928F9389E777
:101D900091E09F938F931F930F930E94D210B801ED
:101DA00081E00E9439070FB6F894DEBF0FBECDBFA9
:101DB0009ACE82E491E0BACF209038023090390276
:101DC000E0903A02F12CEE0CFF1C8130C9F462E97C
:101DD00071E080E00E9439071F922F921F923F927C
:101DE000F701E65EFE4F81818F9380818F93EFE94B
:101DF000F1E0FF93EF931F930F930E94D210CFCF88
:101E00006EEA71E080E00E943907809137021F92EC
:101E10008F931F922F921F923F92F701EC5EFE4F1D
:101E200081818F9380818F93ECEBF1E0FF93EF93AF
:101E30001F930F930E94D210B2CFFB01DC0102C0AE
:101E400005900D9241505040D8F70895F999FECF72
:101E500092BD81BDF89A992780B50895262FF999EA
:101E6000FECF1FBA92BD81BD20BD0FB6F894FA9A7D
:101E7000F99A0FBE019608952F923F924F925F926A
:101E80006F927F928F929F92AF92BF92CF92DF928A
:101E9000EF92FF920F931F93CF93DF93CDB7DEB7EF
:101EA000CA1BDB0B0FB6F894DEBF0FBECDBF099483
:101EB0002A88398848885F846E847D848C849B84DA
:101EC000AA84B984C884DF80EE80FD800C811B81E8
:101ED000AA81B981CE0FD11D0FB6F894DEBF0FBE17
:101EE000CDBFED010895991B79E004C0991F9617A5
:101EF00008F0961B881F7A95C9F78095089597FB7F
:101F0000072E16F4009407D077FD09D00E94990F90
:101F100007FC05D03EF4909581959F4F08957095EC
:101F200061957F4F0895EE0FFF1F0590F491E02D0E
:101F30000994AA1BBB1B51E107C0AA1FBB1FA61710
:101F4000B70710F0A61BB70B881F991F5A95A9F762
:101F500080959095BC01CD0108950F931F93CF9369
:101F6000DF938230910510F482E090E0E091EC0282
:101F7000F091ED0230E020E0B0E0A0E0309799F47D
:101F80002115310509F44AC0281B390B24303105CD
:101F9000D8F58A819B816115710589F1FB019383D5
:101FA0008283FE0111C04081518102811381481753
:101FB0005907E0F04817590799F4109761F0129605
:101FC0000C93129713961C933296CF01DF91CF9109
:101FD0001F910F9108950093EC021093ED02F4CF3E
:101FE0002115310551F04217530738F0A901DB01E3
:101FF0009A01BD01DF01F801C1CFEF01F9CF909344
:10200000ED028093EC02CDCFFE01E20FF31F81932E
:1020100091932250310939832883D7CF2091EA0246
:102020003091EB02232B41F42091080130910901FA
:102030003093EB022093EA022091060130910701D0
:102040002115310541F42DB73EB740910A01509159
:102050000B01241B350BE091EA02F091EB02E21731
:10206000F307A0F42E1B3F0B2817390778F0AC01BB
:102070004E5F5F4F2417350748F04E0F5F1F509398
:10208000EB024093EA02819391939FCFF0E0E0E06E
:102090009CCFCF93DF930097E9F0FC013297138236
:1020A0001282A091EC02B091ED02ED0130E020E04F
:1020B0001097A1F420813181820F931F2091EA02B1
:1020C0003091EB022817390709F061C0F093EB0259
:1020D000E093EA02DF91CF910895EA01CE17DF077E
:1020E000E8F54A815B819E0141155105B1F7E9018F
:1020F000FB83EA8349915991C40FD51FEC17FD0763
:1021000061F4808191810296840F951FE901998382
:102110008883828193819B838A83F0E0E0E012963A
:102120008D919C9113970097B9F52D913C91119742
:10213000CD010296820F931F2091EA023091EB02AB
:102140002817390739F6309751F51092ED021092A1
:10215000EC02B093EB02A093EA02BCCFD383C2831C
:1021600040815181840F951FC817D90761F44E5FD4
:102170005F4F88819981480F591F518340838A811D
:102180009B81938382832115310509F0B0CFF093B1
:10219000ED02E093EC029ECFFD01DC01C0CF138283
:1021A0001282D7CFAEE0B0E0E8EDF0E10C944A0F38
:1021B0000D891E8986E08C831A8309838FEF9FE740
:1021C0009E838D83AE01475E5F4F6F89788DCE0110
:1021D00001960E94F5102F813885020F131FF80118
:1021E00010822E96E4E00C94660FABE0B0E0EBEFCB
:1021F000F0E10C943C0F7C013B018A01FC01178249
:102200001682838181FFC8C1CE0101965C01F7016E
:102210009381F30193FD859193FF81913F01882381
:1022200009F453C1853239F493FD859193FF81916F
:102230003F01853229F4B70190E00E94E512E7CF13
:10224000912C212C312CFFE1F31538F08B3211F158
:1022500090F4803209F1833229F137FC3CC020ED43
:10226000280F2A3050F536FE20C08AE0989E200DB7
:102270001124922E06C08D3291F0803371F768944C
:1022800030F8F30193FD859193FF81913F01811116
:10229000DACF21C0689431F8689432F8F2CF6894AC
:1022A00033F8EFCF689434F8ECCFEAE02E9E200D9F
:1022B0001124222E689435F8E4CF8E3229F436FCAE
:1022C00004C1689436F8DDCF8C3619F4689437F879
:1022D000D8CF8836B1F2982F9F7D95549330E0F097
:1022E0008336A1F18337C1F1833509F063C028013A
:1022F000F2E04F0E511CF801C080D180692D70E0D2
:1023000036FC02C06FEF7FEFC6010E94CF124C0176
:10231000689437F882010AC00C5F1F4FFFE3F9830E
:1023200088248394912C6501E89437F833FE2DC0FE
:10233000522C8114910471F5552009F468CFB7012E
:1023400080E290E00E94E5125A94F6CFF801808175
:1023500089830E5F1F4FE4CF2801F2E04F0E511C1E
:10236000F801C080D180692D70E036FC02C06FEFAB
:102370007FEFC6010E94DA124C018201D5CFB7016E
:1023800080E290E00E94E5122A942814190409F0D2
:10239000B0F7CECFF60137FC859137FE81916F0102
:1023A000B70190E00E94E51251105A94F1E08F1AA3
:1023B0009108BFCF843619F0893609F077C0F8014B
:1023C00037FE6BC060817181828193810C5F1F4FEA
:1023D000F32DFF763F2E97FF09C09095809570955D
:1023E00061957F4F8F4F9F4F689437F82AE030E018
:1023F000A5010E941513C82ECA188C2C432C36FE3A
:102400000CC0E89440F8C91440F434FE05C032FC16
:1024100003C0F32DFE7E4F2E892C44FE95C0FE0195
:10242000EC0DF11D8081803309F087C0242D297EB9
:10243000422E842D8870582E43FC95C040FE8FC0DC
:102440009C2C821418F42C0C922C981844FE91C0E9
:10245000B70180E390E00E94E51242FE09C088E7E0
:1024600090E041FE02C088E590E0B7010E94E512CD
:10247000C91408F48AC0CA94D12C9FEFC91AD90A8A
:10248000CA0CDB1CF60182916F01B70190E00E943B
:10249000E512AC14BD04B1F74FCF60817181072EF6
:1024A000000C880B990B0E5F1F4F92CFD32CE89432
:1024B000D4F82AE030E0853739F1232D297FD22E58
:1024C0008F3601F148F48835A9F0F70186819781AC
:1024D0002B96E2E10C94580F803749F08837A9F722
:1024E000D4FE02C06894D2F820E130E00DC06894B8
:1024F000D4F8F6CF34FE03C0822F8660D82E20E1B8
:1025000032E002C028E030E0F801D7FE0FC0608161
:102510007181828193810C5F1F4FA5010E94151369
:10252000C82ECA183D2CE89437F867CF60817181B6
:1025300090E080E00E5F1F4FF0CF42FC02C083941A
:1025400078CF8394839475CF842D867809F471CFE6
:10255000F6CFB70180E290E00E94E51283948214E6
:10256000C0F3512C73CF522C5818821408F46ECF3C
:10257000F8CF842D867809F47BCF8BE241FE80E290
:1025800047FC8DE2B70190E071CFB70180E390E0A6
:102590000E94E5129A946CCF8FEF9FEF99CFFC01C8
:1025A0000590615070400110D8F7809590958E0F7E
:1025B0009F1F0895FC016150704001900110D8F7F1
:1025C000809590958E0F9F1F08950F931F93CF9323
:1025D000DF93182F092FEB018B8181FD09C01FEFBD
:1025E0000FEF812F902FDF91CF911F910F910895C1
:1025F00082FF14C02E813F818C819D81281739076D
:102600003CF4E881F981CF01019699838883108396
:102610008E819F8101969F838E83E3CFE885F98524
:10262000812F0995892BA1F3DACFFA01AA27283047
:1026300051F1203181F1E8946F936E7F6E5F7F4F8F
:102640008F4F9F4FAF4FB1E03ED0B4E03CD0670F0B
:10265000781F891F9A1FA11D680F791F8A1F911D5E
:10266000A11D6A0F711D811D911DA11D20D009F4AE
:1026700068943F912AE0269F11243019305D3193F0
:10268000DEF6CF010895462F4770405D4193B3E0D9
:102690000FD0C9F7F6CF462F4F70405D4A3318F080
:1026A000495D31FD4052419302D0A9F7EACFB4E031
:1026B000A6959795879577956795BA95C9F70097E9
:1026C0006105710508959B01AC010A2E069457958A
:1026D000479537952795BA95C9F7620F731F841FE1
:0A26E000951FA01D0895F894FFCF88
:1026EA00FF1E0601FFFF0000EE028000000040000E
:1026FA0014005400CE01D301D801CE01D301000049
:10270A0000002104F4036404CA03ED03DA03CB03D3
:10271A00000000003307DF0164040C02414C204F23
:10272A004E00414C204F4646002A2A2A2042414F59
:10273A002054485543202A2A2A0044616E67206B98
:10274A0065752E2E2E00253032643A253032643AD1
:10275A00253032642020257300253032642F25303D
:10276A0032642F2530346420253032643A253032E1
:10277A0064004341492042414F20544855430025B3
:10278A0073202020253032643A25303264004341D8
:10279A00492054484F49204749414E002573202576
:1027AA003032643A253032643A253032640047695F
:0E27BA006F2000506875740047696179000057
:00000001FF
