:020000040000FA
:100000000C9468000C9490000C9490000C94900058
:100010000C9490000C9490000C9490000C94900020
:100020000C9490000C9490000C9490000C94900010
:100030000C9490000C9490000C9490000C94900000
:100040000C9484060C9490000C9490000C949000F6
:100050000C9490000C9490000C9490000C949000E0
:100060000C94CE060C94900031353A33343A303645
:1000700000417567203237203230323600000000F0
:100080000800020100000304070000000000000057
:100090000000000000250028002B000000000024C4
:1000A0000027002A000404040404040404020202D9
:1000B00002020203030303030301020408102040A9
:1000C0008001020408102001020408102000FA0731
:1000D00011241FBECFEFD8E0DEBFCDBF22E0A4E4E5
:1000E000B1E001C01D92A133B207E1F711E0A0E039
:1000F000B1E0EAE0F8E102C005900D92A434B10746
:10010000D9F710E0C8E6D0E004C02197FE010E94B4
:10011000D80AC736D107C9F70E9428080C94030CE7
:100120000C94000090E0FC01E754FF4F24918B55A4
:100130009F4FFC018491882399F090E0880F991FCC
:10014000FC01E556FF4FA591B491FC01EF56FF4F1E
:10015000859194918FB7F894EC91E22BEC938FBF3B
:10016000089590E0FC01E358FF4F2491FC01E7540F
:10017000FF4F3491FC01EB55FF4FE491EE23C9F0A2
:10018000222339F0233001F1A8F4213019F1223073
:1001900029F1F0E0EE0FFF1FEF56FF4FA591B4914C
:1001A0008FB7F894EC91611126C030953E233C93B3
:1001B0008FBF08952730A9F02830C9F0243049F7BF
:1001C000809180008F7D03C0809180008F77809325
:1001D0008000DFCF84B58F7784BDDBCF84B58F7D82
:1001E000FBCF8091B0008F778093B000D2CF809109
:1001F000B0008F7DF9CF3E2BDACF3FB7F8948091D6
:10020000930190919401A0919501B091960126B52A
:10021000A89B05C02F3F19F00196A11DB11D3FBF3E
:10022000BA2FA92F982F8827BC01CD01620F711D0D
:10023000811D911D42E0660F771F881F991F4A9507
:10024000D1F7089508950895AF92BF92CF92DF92AB
:10025000EF92FF920F931F93CF93DF936C017B017B
:100260008B01040F151FEB015E01AE18BF08C0170C
:10027000D10759F06991D601ED91FC910190F0817F
:10028000E02DC6010995892B79F7C501DF91CF9142
:100290001F910F91FF90EF90DF90CF90BF90AF90A4
:1002A0000895089520916501260F3327331F2132C9
:1002B0003105ECF42091DF01FC0190E080E0243076
:1002C00069F082E00895A09165012191AC014B5B3A
:1002D0005E4FA40FB52FB11D2C930196861798F38E
:1002E00080916501680F6093650180E0089581E069
:1002F00008951092DF0181E08093DE011092B90130
:1003000061E082E10E94B10061E083E10E94B100FE
:10031000E9EBF0E080818E7F808380818D7F808318
:1003200088E48093B80085E48093BC000895CF935F
:10033000DF9391E0909344018823B9F0C091B80015
:10034000D091BA008091BC008A7B8093BC0060E0B1
:1003500082E10E94B10060E083E10E94B1000E944E
:100360007901D093BA00C093B800DF91CF9108957E
:100370008F929F92AF92BF92CF92DF92EF92FF92B5
:100380000F931F93CF93DF93D0910802D13208F0DF
:10039000D7C0182FC09107020E94FD006B017C019D
:1003A0008091DF0181116BC082E08093DF011093A7
:1003B000DE018FEF8093DD011092DC01D093DB0131
:1003C000A7EEB1E0EBEBF1E080E0D81391C0109222
:1003D000BA018091BA01CC0FC82BC093BA018091A9
:1003E000B901813009F088C01092B9010E94FD0066
:1003F0006B017C018091BA018093BB008091E10187
:100400009091E201A091E301B091E401892B8A2B44
:100410008B2BA1F00E94FD000091E1011091E201FF
:100420002091E3013091E4016C197D098E099F0947
:10043000061717072807390708F442C08091BC0047
:1004400083FDD8CF85EC8093BC000E94FD006B013A
:100450007C018091DF01823009F450C08091DD0180
:100460008F3F09F46FC08091DD01803209F46CC0C8
:100470008091DD01803309F469C084E026C0809159
:10048000E1019091E201A091E301B091E401892B97
:100490008A2B8B2B09F484CF0E94FD008090E10110
:1004A0009090E201A090E301B090E4016C197D0905
:1004B0008E099F0986169706A806B90608F070CF20
:1004C0008091E0010E94970185E01092E601109270
:1004D00008021092E501DF91CF911F910F91FF90DB
:1004E000EF90DF90CF90BF90AF909F908F90089546
:1004F0009D9191938F5F69CF85EEA5CF8091E101AA
:100500009091E201A091E301B091E401892B8A2B43
:100510008B2B09F49ECF0E94FD000091E101109108
:10052000E2012091E3013091E4016C197D098E090B
:100530009F09061717072807390708F08ACFC0CF89
:1005400081E0C3CF80E0C1CF82E0BFCF83E0BDCFE9
:100550001F93CF93DF93EA01122FDC0111968D9147
:100560009C91DC01ED91FC910280F381E02D0995D5
:10057000C817D90729F4812F0E94B80191E0811191
:1005800090E0892FDF91CF911F910895CF93DF9352
:10059000EC018B818823A1F0888191E09093E501A3
:1005A000809307021092E6011092080281E00E94F7
:1005B000B80191E0811190E0892FDF91CF910895EA
:1005C00010929801109297011092E6011092080281
:1005D0000E94790182E291E090938B0180938A01DD
:1005E00083E291E0909389018093880181E08B837D
:1005F000CE010E94C602982F8111CECFDDCF089583
:10060000E091980180919701E81730F4F0E0E75607
:10061000FE4F808190E008958FEF9FEF08959091B5
:100620009801809197012FEF3FEF981748F4E92F39
:10063000F0E0E756FE4F208130E09F5F90939801F5
:10064000C90108958091970190919801891B990B98
:100650000895CF92DF92EF92FF920F931F93CF9363
:10066000DF937C01CB018A012091E501222389F0EF
:10067000EB016B01C40ED51ECC15DD0569F0699147
:10068000D701ED91FC910190F081E02DC701099512
:10069000F3CF642F0E945201C801DF91CF911F91C7
:1006A0000F91FF90EF90DF90CF900895CF93DF935D
:1006B0001F92CDB7DEB769832091E5012223F9F0BF
:1006C00020910802203258F021E030E0FC01338311
:1006D000228390E080E00F90DF91CF910895809188
:1006E000E601E82FF0E0E951FE4F998190838F5F9A
:1006F0008093E6018093080281E090E0ECCF61E016
:10070000CE0101960E945201F7CF90E080E008955B
:100710002F923F924F925F926F927F928F929F9211
:10072000AF92BF92CF92DF92EF92FF920F931F93FF
:10073000CF93DF935C011B016A01F12CE12CD50101
:1007400014968D919C9186010E191F0980179107AF
:1007500008F48C01F501D0810E94FD002B013C01C1
:100760008091DF01811172C0C02F013208F0C0E218
:10077000F1E0F093DF0121E0C601801B910BE81648
:10078000F90608F420E02093DE018FEF8093DD016D
:100790001092DC018C0F8093DB01A1E0A093BA01E1
:1007A0008091BA01DD0FD82BD093BA018091B901A5
:1007B000813009F090C01092B9010E94FD002B0118
:1007C0003C018091BA018093BB008091E10190913E
:1007D000E201A091E301B091E401892B8A2B8B2BDC
:1007E000A1F00E94FD002091E1013091E2014091D1
:1007F000E3015091E40164197509860997092617E8
:1008000037074807590708F442C08091BC0083FDB0
:10081000D8CFB5ECB093BC000E94FD002B013C0189
:100820008091DF01813009F45AC08091DC018C177E
:1008300010F4C091DC01ABEBB1E0E9E9F1E080E05C
:100840008C1751F19D9191938F5FFACF8091E101C7
:100850009091E201A091E301B091E401892B8A2BF0
:100860008B2B09F47DCF0E94FD002091E101309196
:10087000E2014091E3015091E40164197509860990
:100880009709261737074807590708F069CF80915D
:10089000E0010E949701C0E010929801C093970177
:1008A000C017110609F057C041018E0C9F1CE401CE
:1008B000CE01881999098017910798F5D5011196ED
:1008C0008D919C91DC01ED91FC910284F385E02DEA
:1008D00009958993EDCFE5EEE093BC009DCF809123
:1008E000E1019091E201A091E301B091E401892B33
:1008F0008A2B8B2B09F494CF0E94FD002091E101FB
:100900003091E2014091E3015091E40164197509CD
:1009100086099709261737074807590708F080CF37
:10092000B6CFE00EF11EEC14FD0408F408CF81E010
:10093000DF91CF911F910F91FF90EF90DF90CF90BB
:10094000BF90AF909F908F907F906F905F904F90EF
:100950003F902F90089580E0EBCFCF93DF93EC0191
:1009600060E08E810E94B10061E08E810E94B10042
:1009700060E08E810E94B1008BE891E00197F1F771
:10098000DF91CF910895CF92DF92EF92FF920F9374
:100990001F93CF93DF936C017C0187E0E80EF11C7D
:1009A000D0E0C0E0062F10E0B8010C2E02C0759513
:1009B00067950A94E2F76170F70181917F010E94C7
:1009C000B1002196C430D10579F7C601DF91CF91EE
:1009D0001F910F91FF90EF90DF90CF900C94AD049A
:1009E000CF92DF92EF92FF920F931F93CF93DF93FB
:1009F000EC01F62E642F8C810E94B1008D818F3F17
:100A000019F060E00E94B1000F2D10E08F8584FF87
:100A100025C06E0187E0C80ED11CF12CE12CB80175
:100A20000E2C02C0759567950A94E2F76170F60185
:100A300081916F010E94B100FFEFEF1AFF0A88E079
:100A4000E816F10461F7CE01DF91CF911F910F916C
:100A5000FF90EF90DF90CF900C94AD04B80184E04C
:100A6000759567958A95E1F7CE010E94C3046F2DB5
:100A7000CE01DF91CF911F910F91FF90EF90DF900A
:100A8000CF900C94C30440E0682F85E192E00C9471
:100A9000F004CF93DF93823029F490912402986080
:100AA00090932402809328021092290280E480937C
:100AB0002A0280E180932B0280E580932C028091B2
:100AC00019020E94920080911A028F3F11F00E9439
:100AD000920080911B020E949200C5E1D2E09E012B
:100AE000255132408091240284FD0AC084E090E0C8
:100AF0002196281739073CF48E810E949200EFCF8F
:100B000088E090E0F5CF8BE39DE00197F1F760E09E
:100B1000809119020E94B10060E080911B020E9446
:100B2000B10080911A028F3F19F060E00E94B1007D
:100B30008091240284FD39C063E085E192E00E9447
:100B4000C304CBE4D6E4CE010197F1F763E085E17D
:100B500092E00E94C3042197F1F763E085E192E0FF
:100B60000E94C30483E592E00197F1F762E085E11A
:100B700092E00E94C3048091240280620E94430597
:100B800084E0809325028CE00E94430581E00E946E
:100B900043058BE39FE10197F1F782E08093260202
:100BA00086E0DF91CF910C94430580620E9443055B
:100BB0008BE496E40197F1F78091240280620E9411
:100BC000430583E592E00197F1F78091240280626A
:100BD0000E944305D0CF41E00E94F00481E090E004
:100BE00008958F929F92AF92BF920F931F93CF93CE
:100BF000DF93CDB7DEB7A1970FB6F894DEBF0FBE77
:100C0000CDBF19A2423008F44AE08E010F5D1F4F9C
:100C1000842E912CB12CA12CA50194010E94B60A1E
:100C2000E62FB901CA01EA3044F5E05DD801EE9340
:100C30008D01232B242B252B79F790E080E0109752
:100C400069F0FD0101900020E9F73197AF014A1BDF
:100C50005B0BBD0185E192E00E942401A1960FB6D5
:100C6000F894DEBF0FBECDBFDF91CF911F910F91E2
:100C7000BF90AF909F908F900895E95CD7CFFC0113
:100C800001900020E9F73197AF01481B590BBC01D7
:100C900085E192E00C94240185ED8093BC00809165
:100CA000E1019091E201A091E301B091E401079686
:100CB000A11DB11D23E0B695A795979587952A9517
:100CC000D1F72091BC0024FD03C01092DF010895EC
:100CD0004091E1015091E2016091E3017091E401E2
:100CE000452B462B472B69F30097A105B10541F031
:100CF0002AE22A95F1F700C00197A109B109E1CFD5
:100D00008091E0010C9497011F920F920FB60F9201
:100D100011242F933F938F939F93AF93BF93809111
:100D20008F0190919001A0919101B0919201309129
:100D30008E0123E0230F2D3758F50196A11DB11D1B
:100D400020938E0180938F0190939001A093910145
:100D5000B09392018091930190919401A09195019B
:100D6000B09196010196A11DB11D809393019093BE
:100D70009401A0939501B0939601BF91AF919F917B
:100D80008F913F912F910F900FBE0F901F9018954C
:100D900026E8230F0296A11DB11DD2CF1F920F92FC
:100DA0000FB60F9211242F933F934F935F936F933E
:100DB0007F938F939F93AF93BF93EF93FF93809114
:100DC000B900887F803609F44AC0F0F5883209F40A
:100DD000A7C018F5803109F49BC0B8F4882309F442
:100DE000F9C0883009F494C0FF91EF91BF91AF91A1
:100DF0009F918F917F916F915F914F913F912F9133
:100E00000F900FBE0F901F901895883109F488C07D
:100E1000803251F78093DD0114C0803409F49DC005
:100E200040F48033B9F38833F9F68093DD0185EC23
:100E3000B0C0803509F485C0883509F496C088347F
:100E400099F60E944C06D0CF883909F48CC038F549
:100E5000883729F050F4883611F0803729F683E07E
:100E60008093DF011092870157C0883809F47BC056
:100E7000803919F0803809F0B7CF8091870180322E
:100E800008F071C0E091870181E08E0F80938701A7
:100E90008091BB00F0E0E959FE4F80833DC0803B6C
:100EA00039F0E0F4803A09F479C0883A09F09CCF2F
:100EB00084E08093DF011092660110926501E09159
:100EC0008A01F0918B0109958091650181110FC014
:100ED00081E0809365011092450109C0803C09F4CE
:100EE000A6CF883C09F4A3CF883B09F07DCFE091E1
:100EF000660181E08E0F80936601F0E0EB5BFE4FB0
:100F000080818093BB00909166018091650129C02A
:100F10008091BA018093BB0085EC8093BC0064CFC4
:100F20009091DC018091DB01981758F5E091DC018C
:100F300081E08E0F8093DC01F0E0E554FE4F80816C
:100F4000E9CFE091DC0181E08E0F8093DC0180919C
:100F5000BB00F0E0E554FE4F80839091DC0180916E
:100F6000DB019817C8F285E8D8CFE091DC0181E079
:100F70008E0F8093DC018091BB00F0E0E554FE4FC2
:100F800080838091DE0181115CCF81E08093B90183
:100F900084EA8093BC001092DF0126CF85EC809319
:100FA000BC001092DF0180918701803230F4E09123
:100FB0008701F0E0E959FE4F10826091870170E0EF
:100FC000E0918801F091890187E691E009951092FE
:100FD00087010ACF1092DD0134CFFC01908190533C
:100FE0009A3008F090E0818180532AE0929F800D32
:100FF00011240895E9E0F2E01382128288EE93E072
:10100000A0E0B0E084839583A683B7838AE091E073
:1010100091838083E5E1F2E0138212828CE191E01A
:10102000918380838CE084838FEF85838BE086833C
:1010300085E0878384E0808783E0818782E0828700
:101040001386148615861686178681E00C9449054A
:10105000CF93DF93CDB7DEB72C970FB6F894DEBFF2
:101060000FBECDBF789484B5826084BD84B58160A5
:1010700084BD85B5826085BD85B5816085BD809163
:101080006E00816080936E001092810080918100DB
:1010900082608093810080918100816080938100D3
:1010A000809180008160809380008091B100846095
:1010B0008093B1008091B00081608093B0008091F6
:1010C0007A00846080937A0080917A0082608093B5
:1010D0007A0080917A00816080937A0080917A0012
:1010E000806880937A001092C10082E00E944905D6
:1010F00080918C0190918D01009711F00E947A0BE4
:1011000086E090E00E94DE0A7C0188E6F701808399
:1011100089E092E092838183138280E290E095835C
:101120008483F0928D01E0928C01109298011092CC
:1011300097011092E601109208020E94790182E262
:1011400091E090938B0180938A0183E291E09093E8
:1011500089018093880101E0F7010383C7010E94A0
:10116000C602811105C084E291E00E943F06FFCFD4
:101170001C8680918C0190918D01FC012481358128
:10118000232B89F020810093E50120930702109220
:10119000E6011092080221E041E050E0BE01645FE8
:1011A0007F4F0E94A80241E050E0CE0101965C0111
:1011B000BC0180918C0190918D010E9488038981EE
:1011C00090E0880F892F881F990B892B09F49CC008
:1011D0004BE050E061E770E0C5010E94A10ACE013A
:1011E0000A960E94ED07082FE981E154E331D8F413
:1011F0000E2E000CFF0BE150F74F0C94D80A890A11
:10120000130913099D0A1309120913091309130974
:101210007D0A13091309900A9B0A990A13091309F5
:101220001309970A12E0CE0105960E94ED07F82EE9
:1012300048E050E068E670E0C5010E94A10AC501DF
:101240000E94ED07E82ECE0104960E94ED07D82EED
:10125000CE0107960E94ED07382F86E0F501119226
:101260008A95E9F72AE0832F622F0E94AA0A982F15
:10127000880F890F880F830F8A838D2D0E94AA0AF9
:10128000982F880F890F880F8D0D8B838E2D0E94CC
:10129000AA0A982F880F890F880F8E0D8C838F2DA7
:1012A0000E94AA0A982F880F890F880F8F0D8E83AE
:1012B000812F0E94AA0A982F990F890F880F180F63
:1012C0001F83802F0E94AA0A982F880F890F880FEA
:1012D000800F888780918C0190918D01FC01248181
:1012E00035812830310580F0208131E03093E501EF
:1012F000209307021092E6011092080221E048E0D4
:1013000050E0B5010E94A802E0E08E2EE0E09E2EA3
:1013100033243394198200918C0110918D01F801CE
:1013200084819581892BC1F080813092E501809381
:1013300007021092E6011092080220E041E050E01E
:10134000B501C8010E94A802882331F047E050E0AF
:10135000B501C8010E9488036A81862F90E024E0CD
:10136000959587952A95E1F7982F990F990FF82E63
:10137000F91AFF0CF60E6B81862F90E034E09595FC
:1013800087953A95E1F7982F990F990FC82EC91AAA
:10139000CC0CC60E6D81862F90E044E09595879524
:1013A0004A95E1F7982F990F990FD82ED91ADD0C8D
:1013B000D60E6E81862F90E054E0959587955A95CC
:1013C000E1F7982F990F990FE82EE91AEE0CE60E27
:1013D0006F81862F90E074E0959587957A95E1F777
:1013E000982F990F990F082F091B000F060F10E077
:1013F000E1E0809128028111E0E0E195F0E0EB5E10
:10140000FD4F848980680E9443058FE291E00E942D
:101410003F066C2D70E090E080E04AE00E94F1050C
:1014200086E391E00E943F06F9E0FF1520F088E393
:1014300091E00E943F066F2D70E090E080E04AE06E
:101440000E94F105E0912802E23008F078C0E150F6
:10145000F0E0EB5EFD4F848980680E9443058AE3DB
:1014600091E00E943F066D2D70E090E080E04AE040
:101470000E94F10581E491E00E943F066E2D70E02C
:1014800090E080E04AE00E94F10581E491E00E9452
:101490003F060053184FB80190E080E04AE00E94F8
:1014A000F1050E94FD006B017C0188EE482E83E06F
:1014B000582E612C712C0E94FD006C197D098E093B
:1014C0009F09683E734081059105A8F321E0421A07
:1014D00051086108710888EEC80E83E0D81EE11C2F
:1014E000F11C411451046104710429F78114910421
:1014F00009F410CF0E9400000DCF8A8111E08136DF
:1015000009F491CE8B8117E08E3609F08CCE16E06F
:101510008ACE8B8118E0823709F085CE14E083CE25
:101520008B8115E0823709F07ECE13E07CCE19E086
:101530007ACE1AE078CE1BE076CE1CE074CEE1E0E5
:1015400087CFFB01DC0102C005900D924150504055
:10155000D8F70895991B79E004C0991F961708F0F1
:10156000961B881F7A95C9F780950895A1E21A2ED7
:10157000AA1BBB1BFD010DC0AA1FBB1FEE1FFF1F37
:10158000A217B307E407F50720F0A21BB30BE40B87
:10159000F50B661F771F881F991F1A9469F76095CE
:1015A0007095809590959B01AC01BD01CF01089588
:1015B000EE0FFF1F0590F491E02D09940F931F93F8
:1015C000CF93DF938230910510F482E090E0E091B8
:1015D0002F02F091300230E020E0B0E0A0E0309740
:1015E00099F42115310509F44AC0281B390B243020
:1015F0003105D8F58A819B816115710589F1FB015F
:1016000093838283FE0111C0408151810281138145
:1016100048175907E0F04817590799F4109761F0F7
:1016200012960C93129713961C933296CF01DF916A
:10163000CF911F910F91089500932F0210933002C4
:10164000F4CF2115310551F04217530738F0A901A5
:10165000DB019A01BD01DF01F801C1CFEF01F9CF34
:101660009093300280932F02CDCFFE01E20FF31F43
:10167000819391932250310939832883D7CF2091C8
:101680002D0230912E02232B41F420910201309142
:10169000030130932E0220932D02209100013091FE
:1016A00001012115310541F42DB73EB740910401E8
:1016B00050910501241B350BE0912D02F0912E0273
:1016C000E217F307A0F42E1B3F0B2817390778F019
:1016D000AC014E5F5F4F2417350748F04E0F5F1F78
:1016E00050932E0240932D02819391939FCFF0E06F
:1016F000E0E09CCFCF93DF930097E9F0FC013297B5
:1017000013821282A0912F02B0913002ED0130E0DD
:1017100020E01097A1F420813181820F931F209146
:101720002D0230912E022817390709F061C0F0937D
:101730002E02E0932D02DF91CF910895EA01CE179A
:10174000DF07E8F54A815B819E0141155105B1F73C
:10175000E901FB83EA8349915991C40FD51FEC1726
:10176000FD0761F4808191810296840F951FE90144
:1017700099838883828193819B838A83F0E0E0E070
:1017800012968D919C9113970097B9F52D913C91EC
:101790001197CD010296820F931F20912D02309157
:1017A0002E022817390739F6309751F5109230027A
:1017B00010922F02B0932E02A0932D02BCCFD383A0
:1017C000C28340815181840F951FC817D90761F4E6
:1017D0004E5F5F4F88819981480F591F5183408325
:1017E0008A819B81938382832115310509F0B0CFD3
:1017F000F0933002E0932F029ECFFD01DC01C0CFB9
:1018000013821282D7CFF894FFCF000031028000FC
:1018100000000000560329038503FF0222030F0383
:10182000000300000000EB05240185035101525420
:1018300043204552524F52210054696D653A2000B1
:0E1840003A003000446174653A20002F000029
:107E0000112484B714BE81FFF0D085E080938100F7
:107E100082E08093C00088E18093C10086E0809377
:107E2000C20080E18093C4008EE0C9D0259A86E02C
:107E300020E33CEF91E0309385002093840096BBD3
:107E4000B09BFECF1D9AA8958150A9F7CC24DD24C4
:107E500088248394B5E0AB2EA1E19A2EF3E0BF2EE7
:107E6000A2D0813461F49FD0082FAFD0023811F036
:107E7000013811F484E001C083E08DD089C08234E0
:107E800011F484E103C0853419F485E0A6D080C0E4
:107E9000853579F488D0E82EFF2485D0082F10E0AE
:107EA000102F00270E291F29000F111F8ED06801E7
:107EB0006FC0863521F484E090D080E0DECF843638
:107EC00009F040C070D06FD0082F6DD080E0C81688
:107ED00080E7D80618F4F601B7BEE895C0E0D1E017
:107EE00062D089930C17E1F7F0E0CF16F0E7DF06D8
:107EF00018F0F601B7BEE89568D007B600FCFDCFD4
:107F0000A601A0E0B1E02C9130E011968C91119780
:107F100090E0982F8827822B932B1296FA010C0160
:107F200087BEE89511244E5F5F4FF1E0A038BF0790
:107F300051F7F601A7BEE89507B600FCFDCF97BE46
:107F4000E89526C08437B1F42ED02DD0F82E2BD052
:107F50003CD0F601EF2C8F010F5F1F4F84911BD097
:107F6000EA94F801C1F70894C11CD11CFA94CF0C13
:107F7000D11C0EC0853739F428D08EE10CD085E9AC
:107F80000AD08FE07ACF813511F488E018D01DD067
:107F900080E101D065CF982F8091C00085FFFCCF94
:107FA0009093C60008958091C00087FFFCCF809118
:107FB000C00084FD01C0A8958091C6000895E0E648
:107FC000F0E098E1908380830895EDDF803219F02E
:107FD00088E0F5DFFFCF84E1DECF1F93182FE3DFCA
:107FE0001150E9F7F2DF1F91089580E0E8DFEE27F6
:047FF000FF270994CA
:027FFE00040479
:00000001FF
